:020000040800F2
:1000000058070020890100088717000821120008FE
:10001000851700088F020008FF1900080000000083
:100020000000000000000000000000008B17000826
:100030002D03000800000000891700088D17000834
:10004000A3010008A3010008A3010008A301000800
:10005000A3010008A3010008A3010008A3010008F0
:10006000A3010008A3010008A3010008A3010008E0
:10007000A3010008A3010008A3010008A3010008D0
:10008000A3010008A3010008A3010008A3010008C0
:10009000A3010008A3010008A3010008A3010008B0
:1000A000A3010008A3010008A3010008A3010008A0
:1000B000A3010008A301000800000000A30100083C
:1000C000A30100080000000000000000A3010008D8
:1000D00000000000A3010008A301000800000000C8
:1000E000A3010008A3010008A301000800F002F822
:1000F00000F03AF80AA090E8000C82448344AAF188
:100100000107DA4501D100F02FF8AFF2090EBAE885
:100110000F0013F0010F18BFFB1A43F0010318473B
:100120007019000090190000103A24BF78C878C1F7
:10013000FAD8520724BF30C830C144BF04680C60ED
:10014000704700000023002400250026103A28BF35
:1001500078C1FBD8520728BF30C148BF0B60704739
:100160001FB51FBD10B510BD00F058F81146FFF7C0
:10017000F7FF01F055FC00F076F803B4FFF7F2FF4B
:1001800003BC00F07DF8000009488047094800479B
:10019000FEE7FEE7FEE7FEE7FEE7FEE7FEE7FEE737
:1001A000FEE7FEE704480549054A064B7047000094
:1001B000E1170008ED000008580100205807002052
:1001C00058030020580300204FF0000200B51346EA
:1001D00094469646203922BFA0E80C50A0E80C5067
:1001E000B1F12001BFF4F7AF090728BFA0E80C5018
:1001F00048BF0CC05DF804EB890028BF40F8042B11
:1002000008BF704748BF20F8022B11F0804F18BF7D
:1002100000F8012B7047704770477047754600F033
:100220002BF8AE4605006946534620F00700854688
:1002300018B020B5FFF7B6FFBDE820404FF000062C
:100240004FF000074FF000084FF0000B21F00701BE
:10025000AC46ACE8C009ACE8C009ACE8C009ACE801
:10026000C0098D46704710B50446AFF300802046A4
:10027000BDE81040FFF781BF00487047F400002040
:1002800001491820ABBEFEE7260002007047FEE7DA
:1002900010B5002404F10800C0B2002100F030F8CD
:1002A000641CE4B2082CF5D310BD10B5052000F095
:1002B00041F80021072000F023F8012000F03AF86F
:1002C0000321042000F01CF8BDE81040012000F0DC
:1002D00031B80000C0F10B00C21700EB527222F0DF
:1002E0000702801A054B01F00F0201F080019A5CB1
:1002F00011430830C0B200F003B80000541A0008DF
:100300001CB500F00F00602242EA40008DF80400A6
:100310004FF0FF308DF805100090022301AA6021F4
:10032000014800F0C9F91CBD10000020704772B6EA
:10033000FEE7000070B5044600F0F4F80546601CC6
:1003400002D004480078044400F0ECF8401BA042BE
:10035000FAD370BD000000202DE9F84FDFF89C9122
:100360000024A9F1040B23460F2709F1040AABF17D
:10037000040EBBE00125A5402A40AA4276D1DFF851
:1003800080C14E68A6EB0C0866452BD00DDC032E11
:1003900034D005DC36B3012E19D0022E2FD11BE04C
:1003A000112E16D0122E2AD119E0B8F5881F19D0B7
:1003B00006DCB8F5803F15D0B8F5801F1FD111E0DD
:1003C000B8F5001F0ED0B8F5041F18D10AE0CB68AD
:1003D00015E0CB681B1D12E0CB6808330FE0CB683B
:1003E0000C330CE08B682BB1012B4FF0080303D0CA
:1003F000456104E0042302E0056100E00023FF2AD8
:1004000001D8064601E000F104064FEA840501D94F
:10041000A5F12005D6F8008007FA05FC28EA0C08AB
:1004200003FA05F548EA0508C6F800804D68ED00B6
:100430005BD5344DAE6946F00106AE61AD6924F07E
:10044000030605F0010500952F4D06EB050CDCF8C1
:100450000850A607360F07FA06F825EA0805DFF860
:10046000AC80404503D14FF0000810E03DE0DFF8DC
:10047000A080404502D14FF0010808E0DFF89480E9
:10048000404502D14FF0020801E04FF0030808FA9E
:1004900006F848EA0508CCF808804D68D9F80060ED
:1004A000ED024D4601D5164300E096432E604D689F
:1004B000DAF80060AD02554601D5164300E09643D8
:1004C0002E604D68DBF80060AD035D4601D5164334
:1004D00000E096432E604D68DEF80060ED0375463F
:1004E00001D5164300E096432E60641C0A6832FA78
:1004F00004F57FF43FAFBDE8F88F00000804014029
:1005000000001110001002400000014000080140EE
:10051000000C0140001001400AB10161704709045C
:10052000FBE70000014880687047000000000020E1
:1005300070B5040025D094F83D00002520B984F85A
:100540003C50204600F04EF9242084F83D002068FD
:10055000016821F0010101602068016841F4004157
:1005600001602068016821F40041016000F088FA10
:100570004D4A6168914201D84C4900E04C4988429B
:1005800001D2012070BD4B492368B0FBF1F15E68D8
:1005900026F03F060E435E606368934206D94FF42F
:1005A000967359434FF47A73B1FBF3F12368491CF6
:1005B0001E6A26F03F06314319626168914210D8E5
:1005C0004900401EB0FBF1F2521CC2F30B02042A98
:1005D00001D2042022E0B0FBF1F0401CC0F30B007C
:1005E0001CE0A268F2B301EBC10303EB0116431E4A
:1005F000B3FBF6F35B1C43F480431B0549D092B375
:1006000001EBC10202EB0111401EB0FBF1F0401CF6
:10061000C0F30B0040F4804040F400402168CA69F8
:100620004CF6FF739A431043C861D4E907100143A5
:100630002068026822F0C00211430160D4E903017E
:1006400001432068826848F2FF339A431143816076
:10065000D4E9050108432168CA6822F0FF0210436B
:10066000C86001E00EE016E02068016841F0010179
:1006700001602564202084F83D00256384F83E5005
:10068000002070BD01EB4106431EB3FBF6F35B1C7B
:10069000B3E70120C2E701EB4101401EB0FBF1F0DE
:1006A000401CC0F30B00B7E7A086010080841E0049
:1006B00000093D0040420F002DE9F84F1F469046CB
:1006C0008A460446DDF82890FFF72CFF054694F88B
:1006D0003D0020287FD11923012240492046009562
:1006E00000F030FE002876D194F83C00012872D04A
:1006F000012084F83C0020680168C90703D1016823
:1007000041F0010101602068016821F4006101608D
:10071000212084F83D00102084F83E000026266445
:10072000C4F824806785608D20852D48E0622B46C3
:100730004A465146204600F08BFD90B92068416939
:100740008069009036E02A464946204600F0A0FE27
:1007500050B1206C042804D12068016841F4007174
:1007600001600120BDE8F88F606A216800780861A7
:10077000606A401C6062618D491E6185218D491E41
:1007800089B2218522685369DB435B070BD451B1E1
:1007900000781061606A401C6062608D401E608558
:1007A000208D401E20852A464946204600F09EFDA9
:1007B0000028CED1208D0028C5D154F83D0B01680A
:1007C00041F400710160202004F81E09E677667785
:1007D0000020C7E7FFE70220C4E700000200100086
:1007E0000000FFFF10B586B0002100910191029139
:1007F000039100680F4988421AD10F4CA06940F05C
:100800000800A061A069694600F008000490C020BB
:10081000009012200190032003900848FFF79CFDF0
:10082000E06940F40010E061E06900F40010049019
:1008300006B010BD0054004000100240000C014002
:1008400002488168027811448160704700000020EE
:10085000074810B5016841F010010160032000F065
:1008600067F80F2000F006F800F024F8002010BD13
:100870000020024070B50D4D04464FF47A7128787F
:10088000B1FBF0F00A490968B1FBF0F000F0BEFAE4
:1008900048B9102C07D200222146501E00F028F83B
:1008A00000206C6070BD012070BD000000000020C1
:1008B0000C0000200C4808B5816941F001018161FC
:1008C000816901F001010091C16941F08051C1616C
:1008D000C06900F0805000900448416821F0E06158
:1008E00041F00071416008BD00100240000001406D
:1008F000F0B40E4B1B680C46C3F30223C3F107058B
:10090000042D00D90425191D072901D2002300E078
:10091000DB1E012606FA05F1491E214099409E4042
:10092000761E16403143F0BC01F06AB80CED00E0D1
:10093000064900F0070208684FF6FF03184040EA36
:100940000220034A10430860704700000CED00E0ED
:100950000000FA052DE9F0470F46050061D0434E2F
:10096000306800F00700B84209D2306820F0070074
:1009700038433060306800F00700B84251D1286831
:100980003B4C810712D5400703D5606840F4E06016
:1009900060602878000703D5606840F460506060AC
:1009A0006068A96820F0F000084360602878C007FC
:1009B00028D06868012810D02168022810D0890743
:1009C00000292EDA616821F0030101436160FFF71D
:1009D000A9FD804641F288390DE021688903EFE7DF
:1009E0008901EDE7FFF79EFDA0EB0801494502D91B
:1009F0000320BDE8F0876068696800F00C00B0EB88
:100A0000810FEFD1306800F00700B8420BD9306891
:100A100020F0070038433060306800F00700B8422B
:100A200001D00120E5E72878400705D56068E9682E
:100A300020F4E060084360602878000706D560680D
:100A4000296920F4605040EAC100606000F028F895
:100A50006168084AC1F30311515CC8400649086047
:100A600006480068FFF706FF0020C2E700200240AA
:100A700000100240761A00080C000020040000203C
:100A80000448054900684968044AC1F30221515CE1
:100A9000C84070470C00002000100240861A000871
:100AA0000E4A51680E4801F00C03042B11D0082B9C
:100AB0000FD10C48C1F38343C903C05C0AD5516808
:100AC000084AC1F34041921E515C054A5043B0FBB5
:100AD000F1F070470449484370470000001002409D
:100AE00000127A00661A000800093D002DE9F84F4F
:100AF000040070D02078C04DC00749D06868C0F3AA
:100B00008100012807D06868C0F38100022809D15C
:100B10006868C00306D52868800339D56068002856
:100B2000E7D035E06068B0F5803F0BD010B1B0F58C
:100B3000A02F11D0286820F480302860286820F485
:100B4000802002E0286840F480302860606890B11E
:100B5000FFF7E8FC06460AE0286840F48020286099
:100B6000F0E700BFFFF7DEFC801B642873D828681D
:100B70008003F7D50CE0FFF7D5FC064605E000BF83
:100B8000FFF7D0FC801B6428F0D828688003F7D4D6
:100B900020789A4E80074FF001094FF0000839D5B0
:100BA000686810F00C0F07D06868C0F38100022855
:100BB00009D16868C00306D42868800714D5206965
:100BC000012808D110E02069B0B1C6F80090FFF705
:100BD000A9FC074605E00AE1FFF7A4FCC01B0228B8
:100BE000C4D828688007F7D52868616920F0F80024
:100BF00040EAC10028600DE0C6F80080FFF792FCD3
:100C0000074604E0FFF78EFCC01B022823D82868A3
:100C10008007F7D4207800072CD57948A169D9B18D
:100C2000C0F80090FFF77EFC074604E0FFF77AFC6F
:100C3000C01B02280FD8686A8007F7D571484FF4A7
:100C4000FA510068B0FBF1F0009000BF0098411E1F
:100C50000091FAD20EE080E0C0F80080FFF762FC5D
:100C6000074604E0FFF75EFCC01B022875D8686ADF
:100C70008007F7D42078400760D5E8690027C000D6
:100C800008D4E86940F08050E861E869012700F085
:100C9000805000905C480168C90513D40168834600
:100CA00041F480710160FFF73DFC824606E000BF21
:100CB000FFF738FCA0EB0A0064284ED8DBF80000F0
:100CC000C005F5D5E06801280AD008B1052813D081
:100CD000286A20F001002862286A20F0040002E05F
:100CE000286A40F001002862E06841F2883B98B130
:100CF000FFF718FC82460BE0286A40F004002862E7
:100D0000EEE700BFFFF70EFCA0EB0A0159455AD8E9
:100D1000286A8007F6D50CE0FFF704FC824605E060
:100D2000FFF700FCA0EB0A0159454CD8286A800760
:100D3000F6D41FB1E86920F08050E861E06988B31B
:100D40006968C1F38101022944D00228C6F8608095
:100D500004D0FFF7E7FB044638E034E0FFF7E2FB9E
:100D6000074604E0FFF7DEFBC01B02282BD82868EB
:100D70008001F7D4206AB0F5803F05D16868A1688A
:100D800020F4003008436860D4E90801084369682A
:100D900021F4741108436860C6F86090FFF7C2FB45
:100DA000044606E025E000BFFFF7BCFB001B02285D
:100DB00009D828688001F7D51BE000BFFFF7B2FB18
:100DC000001B022802D90320BDE8F88F28688001A3
:100DD000F4D40EE00128F7D06868226A00F480316C
:100DE000914204D1616A00F47010884201D0012060
:100DF000EAE70020E8E7000000100240000042425D
:100E0000800442420C0000200070004010B5401EDB
:100E1000B0F1807F01D3012010BD4FF0E02460616C
:100E20000F21601700F0ECFD0020A0610720206179
:100E3000002010BD10B590F83C20012A22D00122DC
:100E400080F83C20CA688C6822F4407222434C68C7
:100E500022F4806222430C6822F4006222430C696F
:100E600022F4805222434C6922F400522243C96981
:100E7000002322F480420A4301684A6480F83C302F
:100E8000002010BD022010BD70B590F83C20012A52
:100E900023D0012480F83C40022280F83D200368E2
:100EA0005A689D6822F070060A6832435A600C4BFB
:100EB00002689A4205D0B2F1804F02D0094B9A42A3
:100EC00004D1496825F080031943916080F83D40C2
:100ED000002180F83C10084670BD022070BD000063
:100EE000002C01400004004010B5040003D094F829
:100EF0003D0010B107E0012010BD002084F83C0047
:100F0000204600F01FF8022084F83D00211D2068D3
:100F100000F068FC012084F8460084F83E0084F864
:100F20003F0084F8400084F8410084F8420084F8CF
:100F3000430084F8440084F8450084F83D00002014
:100F400010BD000008B50C4A01680C48914207D159
:100F5000816941F400618161806900F4006009E009
:100F6000074A914207D1C16941F00201C161C069DC
:100F700000F00200009008BD002C0140001002406B
:100F80000004004070B5044690F83C00002501289C
:100F900017D0012684F83C60022084F83D002068C8
:100FA000826822F0770222F47F428260086850282B
:100FB00038D00DDC20284FD005DC90B3102811D19B
:100FC0004AE0022070BD302846D040280AD13BE0DC
:100FD00060282FD070280DD0B0F5805F03D0B0F519
:100FE000005F12D0012584F83D60002084F83C00A9
:100FF000284670BDCB68D1E90121206800F028FCAB
:101000002068816841F0770109E0CB68D1E90121CE
:10101000206800F01DFC2068816841F480418160F7
:10102000E1E719E0CA684968206800F0C5FC502172
:10103000206806E0CA684968206800F0CEFC60219C
:10104000206800F00FFCCEE7CA684968206800F00D
:10105000B3FC40212068F4E7226801461046F0E71F
:1010600010B586B0002100910191029103911D4BB2
:1010700002681D4902241D489A420ED18A6942F035
:1010800004028A618969039401F0040104914FF418
:101090007061CDE9001469461FE0154B9A421ED1DC
:1010A0008A6942F004028A618A6902F004020492A9
:1010B0008A6942F008028A618969039401F0080193
:1010C0000491C021CDE900146946FFF745F90320DA
:1010D000CDE90004694607480394FFF73DF906B0DF
:1010E00010BD0000002C014000100240000801402B
:1010F00000040040000C014070B5044690F83C002C
:1011000000260D4601280FD0012084F83C006AB16A
:10111000042A1DD0082A2FD00C2A3FD001260020F7
:1011200084F83C00304670BD022070BD206800F09D
:10113000A1FB2068816941F0080181612068816913
:1011400021F004018161206881692A69114311E05D
:10115000206800F0B7FB2068816941F4006181617B
:101160002068816921F480618161206881692A6930
:1011700041EA02218161D2E7206800F0CFFB2068BC
:10118000C16941F00801C1612068C16921F0040111
:10119000C1612068C1692A69114311E0206800F02B
:1011A000E9FB2068C16941F40061C1612068C1693F
:1011B00021F48061C1612068C1692A6941EA022184
:1011C000C161ACE710B5040003D094F83D0010B144
:1011D00007E0012010BD002084F83C00204600F00C
:1011E0001EF8022084F83D00211D206800F0FAFA64
:1011F000012084F8460084F83E0084F83F0084F81B
:10120000400084F8410084F8420084F8430084F8E8
:10121000440084F8450084F83D00002010BD70476C
:10122000FEE701684A69D24352050FD46FF4806229
:101230004A61002140F8301F202242738173026905
:1012400042F00402026101730120704700207047E0
:10125000F8B50446C06A1E460D461746082807D052
:10126000012805D010F5803F02D0206B122804D150
:101270002068016841F480710160134600224FF03C
:1012800001112046009600F05DF840B1206800682A
:10129000C00502D54FF4007020640320F8BD20691A
:1012A000B0F5804F0ED00620216800EAD51040F03E
:1012B000F000086133463A460B49204600F08AF8B0
:1012C00078B902E005F0FE0000E0E8B221680861AC
:1012D000054933463A46891F204600F07BF800282E
:1012E000DCD00120F8BD00000800010070B51646F2
:1012F0000D4604461EE02046FFF793FF08B101208B
:1013000070BD681C16D0FFF70DF9801BA84200D8ED
:1013100085B920684069C04340070BD5002044F8D8
:10132000300F20216173A073216941F020012161F8
:101330002073E4E720684069C0434007DBD4002005
:1013400070BD00002DE9F047984617460D4604464B
:10135000C1F30746DDF820902AE000BFB8F1FF3F57
:1013600026D0FFF7DFF8A0EB0901414502D8B8F11C
:10137000000F1DD12068012E16D0806925EA0000DB
:101380000004000C12D00020B84211D1002044F813
:10139000300F20216173A073216941F02001216188
:1013A00020730120BDE8F0874069E7E70120EBE703
:1013B0002068012E0AD0806925EA00000004000C94
:1013C00006D00020B842C9D00020EBE74069F3E71F
:1013D0000120F7E72DE9F047984616460D460446EA
:1013E0004FF000094FF0200AC1F3074723E02068BF
:1013F0004069C043400515D42068016841F400717C
:10140000016021686FF480604861C4F8309084F80E
:101410003DA084F83E90216C41F00401216484F8E1
:101420003C9021E0701C06D0FFF77CF8A0EB080090
:10143000B04203D816B1012F1FD021E02068012F40
:1014400015D0806925EA00000004000C18D000BF08
:1014500044F8309F84F80DA084F80E90216941F083
:101460002001216184F80C900120BDE8F0874069DB
:1014700025EA00000004000CEAD12068406901E080
:101480002068806925EA00000004000CAFD1ECE779
:1014900070B516460D4604461EE02046FFF7C1FE15
:1014A00008B1012070BD681C16D0FFF73BF8801B07
:1014B000A84200D885B920684069C04300060BD512
:1014C000002044F8300F20216173A073216941F09E
:1014D000200121612073E4E720684069C0430006D1
:1014E000DBD4002070BD000070B586B00024214818
:1014F0000094019402940394816941F02001816178
:10150000816901F020010491816941F00401816148
:10151000816901F004010491816941F00801816150
:101520008069154E00F008004FF4704504900122C8
:1015300029463046FEF7F0FF3015CDE90004694634
:1015400030460294FEF708FF01200095CDE9010422
:101550000320039069463046FEF7FEFE4FF400403C
:10156000CDE90004694605480294FEF7F5FE06B091
:1015700070BD000000100240000C01400008014056
:101580000D4810B50B4901600C49416000214FF432
:1015900080428160C0E9031241618161C1610162E1
:1015A000FEF7C6FF002803D0BDE81040FEF7BFBE1F
:1015B00010BD00000054004010000020A086010073
:1015C00010B596B000240F941094119412941394B3
:1015D0001C2168461494FEF7F7FD202107A8FEF7AA
:1015E000F3FD35483349C0E9001440F2E731C0E962
:1015F0000241046144618461FFF776FC08B1FEF7A3
:1016000096FE4FF480500F900FA92B48FFF7BAFCBD
:1016100008B1FEF78CFE2848FFF7D4FD08B1FEF7AD
:1016200086FE139413A924481494FFF72DFC08B1E7
:10163000FEF77DFE6020CDE900040294039404943B
:101640000594002269461C480694FFF755FD08B131
:10165000FEF76DFE70200090042269461648FFF7E1
:101660004BFD08B1FEF763FE082269461248FFF7FA
:1016700043FD08B1FEF75BFE0C2269460E48FFF7FA
:101680003BFD08B1FEF753FE0794089409944FF40C
:1016900000500A94CDE90B4007A907480E94FFF7C4
:1016A000C9FB08B1FEF743FE0348FFF7D9FC16B0AB
:1016B00010BD0000002C01406400002010B58EB069
:1016C00000240794089409940A940B941C216846FA
:1016D0000C94FEF779FD2A482849C0E9001440F22D
:1016E000E731C0E9024104618461FFF7FDFB08B105
:1016F000FEF71DFE4FF48050079007A92048FFF722
:1017000041FC08B1FEF713FE1D48FFF75BFD08B171
:10171000FEF70DFE0B940BA919480C94FFF7B4FBD0
:1017200008B1FEF704FE7020CDE900040294002207
:10173000694613480494FFF7DFFC08B1FEF7F7FD94
:10174000042269460E48FFF7D7FC08B1FEF7EFFD0B
:10175000082269460A48FFF7CFFC08B1FEF7E7FD0B
:101760000C2269460648FFF7C7FC08B1FEF7DFFD0B
:101770000348FFF775FC0EB010BD000000040040E8
:10178000AC000020FEE7FEE770477047FFF758B84F
:1017900010B590B028216846FEF716FD14210AA85E
:1017A000FEF712FD0220009001200490102000247A
:1017B000059007946846FFF799F908B172B6FEE7FD
:1017C0000F20CDE90A040C940D9400210AA80E9470
:1017D000FFF7C0F8002801D072B6FEE710B010BDC8
:1017E0007047000070B50268174B184C4FF08046E8
:1017F000984203D0B04201D0A04203D122F070053C
:101800004A682A43984203D0B04201D0A04203D193
:1018100022F44074CA6822434C6922F080022243B9
:1018200002608A68C2620A688262984201D10969CC
:101830000163012141610169C90703D0016921F0F8
:101840000101016170BD0000002C01400004004056
:1018500010B5846842EA032224F47F440A432243F9
:10186000826010BD826822F070020A4342F00701D4
:101870008160704730B5036A026A22F00102026299
:101880004268846924F073050C682C4323F0020538
:101890008B682B430A4DA8420BD123F00805CB6877
:1018A00022F440722B434D6923F0040315438A69E7
:1018B0002A434260846149684163036230BD00008D
:1018C000002C014030B5026A036A23F01003036262
:1018D000436884690D6824F4E64444EA05248D686D
:1018E00022F0200242EA05120B4DA8420ED1CD682B
:1018F00022F0800242EA05124D6923F4406343EA74
:1019000085038D6922F0400243EA850343608461C8
:1019100049688163026230BD002C014030B5036A22
:10192000026A22F4807202624268C46923F400737E
:1019300024F073050C682C438D6843EA05230C4D95
:10194000A8420ED1CD6823F4006343EA05234D6914
:1019500022F4405242EA05128D6923F4806342EA80
:1019600005124260C4614968C163036230BD000072
:10197000002C014030B5046A026A22F480520262EF
:101980004268C3690D6823F4E64343EA05238D6882
:1019900024F4005444EA0534064DA84204D14D69AC
:1019A00022F4804242EA85124260C36149680164C0
:1019B000046230BD002C014010B5036A046A24F0B3
:1019C00001040462846924F0F00444EA021423F060
:1019D0000A020A438461026210BD10B5036A046AF8
:1019E00024F010040462846923F0A00324F47044FA
:1019F00044EA023243EA01118261016210BDFEE74E
:101A00000907090E002804DB00F1E02080F800142B
:101A1000704700F00F0000F1E02080F8141D7047BF
:101A2000FEF716FFFFF7B4FEFFF75EFDFFF7A8FD18
:101A3000FEF73BFCFEF72CFCFFF7C2FDFFF73EFE76
:101A4000002400212046FEF745FC641CE4B2082C6B
:101A5000F7D3F5E73F065B4F666D7D077F6F777CB9
:101A6000395E7971010202030405060708090A0BB1
:101A70000C0D0E0F1010000000000000000001020D
:101A80000304060708090000000001020304000027
:101A9000B01A000800000020100000002801000813
:101AA000C01A000810000020480700004401000888
:101AB00001000000100000000000000000127A0089
:04000005080000ED02
:00000001FF
