:020000040800F2
:1000000070070020B5010008891A0008591500087A
:100010002D1A0008BD020008D91C000800000000CD
:100020000000000000000000000000005D1B000850
:10003000C102000800000000591B0008D11C000884
:10004000CF010008CF010008CF010008CF01000850
:10005000CF010008CF010008CF010008CF01000840
:10006000CF010008CF010008CF010008CF01000830
:10007000CF010008CF010008CF010008CF01000820
:10008000CF010008CF010008CF010008CF01000810
:10009000CF010008CF010008CF010008CF01000800
:1000A000CF010008CF010008CF010008CF010008F0
:1000B000CF010008CF01000800000000CF010008B8
:1000C000CF0100080000000000000000CF01000880
:1000D00000000000CF010008CF0100080000000070
:1000E000CF010008CF010008CF01000800F002F89E
:1000F00000F050F814A696E8000CB244B344DA4578
:1001000001D100F047F8BAE80F000FA696E83000DA
:10011000A5EB040504EB0607AAEB0704A7F101070A
:100120004FEA15154FEA3414A4F10104AC4201D38F
:1001300000F030F813F0010F18BFFB1A43F0010371
:1001400000F001F8DBE71847C4200000E4200000BD
:10015000103A24BF78C878C1FAD8520724BF30C8F3
:1001600030C144BF04680C60704700007047000055
:100170000023002400250026103A28BF78C1FBD8B0
:10018000520728BF30C148BF0B6070471FB51FBD65
:1001900010B510BD00F058F81146FFF7F7FF01F059
:1001A0009DFD00F076F803B4FFF7F2FF03BC00F00A
:1001B0007DF800000948804709480047FEE7FEE750
:1001C000FEE7FEE7FEE7FEE7FEE7FEE7FEE7FEE707
:1001D00004480549054A064B70470000D51C000835
:1001E000ED0000087001002070070020700300205F
:1001F000700300204FF0000200B513469446964667
:10020000203922BFA0E80C50A0E80C50B1F1200129
:10021000BFF4F7AF090728BFA0E80C5048BF0CC0D7
:100220005DF804EB890028BF40F8042B08BF704735
:1002300048BF20F8022B11F0804F18BF00F8012BA7
:100240007047704770477047754600F02BF8AE4610
:1002500005006946534620F00700854618B020B5D2
:10026000FFF7B6FFBDE820404FF000064FF0000753
:100270004FF000084FF0000BAC46ACE8C009ACE80A
:10028000C009ACE8C009ACE8C00921F007018D46FF
:10029000704710B50446AFF300802046BDE810401B
:1002A000FFF781BF00487047100000200149182067
:1002B000ABBEFEE72600020070470000FEE700002C
:1002C00070470000EFF3108072B600BFFEE7000039
:1002D000B0B5044600F01CF9054640F20000C2F239
:1002E00000000078611C18BF044400BF00F010F942
:1002F000401BA042FAD3B0BD2DE9F04F82B00E688A
:10030000002E00F0F58041F20002C4F20102032346
:1003100040F2004E904208BF02234FF6FF7CC4F229
:10032000010E009300240123C1F2100C4FF0000BCA
:100330004FF0000944E000BF002704F00C030F2237
:100340009A402AEA020207FA03F34FEA9B051A438E
:1003500046F825204E6840F20C45F202DEF80820EF
:1003600054BF22EA080242EA0802C4F20105CEF8AC
:1003700008202A68B30254BF22EA080242EA0802AF
:100380002A60B303DEF8042054BF22EA080242EADE
:100390000802F303CEF80420DEF800204FF001033A
:1003A00054BF22EA080242EA0802CEF800200E6892
:1003B0000BF1010B36FA0BF204F1040400F0988003
:1003C00003FA0BFA16EA0A08F1D04E68664511DC0A
:1003D000122E55D8DFE806F0340A4C4854545454D1
:1003E000545454545454545454445000D1F80C9020
:1003F00046E000BF4FF6FF72C1F2210296420FDCC9
:100400000022C1F2110296421AD00022C1F2120259
:10041000964215D00022C1F22102964210D02FE060
:100420000022C1F2220296420AD00022C1F2310219
:10043000964205D00022C1F23202964220D100BF7E
:100440008A684AB1012A14BFC0F814A0C0F810A0ED
:100450004FF0080914E000BF4FF0040910E000BF9E
:10046000CA6802F104090BE04FF0000908E000BF80
:10047000CA6802F1080903E0CA6802F10C0900BF6A
:1004800002462646B8F5807F24BF0432203E176816
:100490000F25B54027EA050509FA06F6354315602C
:1004A000CA79D2067FF583AF41F21803C4F2020382
:1004B0001A68AEF57E7642F001021A601A6802F000
:1004C00001020192019A2BF0030256F802A040F6B5
:1004D0000002C4F2010290423FF42EAF40F6004207
:1004E000C4F20102009F904208BF012725E700BF28
:1004F00002B0BDE8F08F00008068084018BF0120FE
:1005000070470000002A08BF09040161704700001D
:1005100040F26810C2F2000000687047002804BF73
:1005200001207047F0B581B0044690F83D0028B92D
:10053000002084F83C00204600F0A2F8242084F833
:100540003D002068016821F001010160016841F46B
:1005500000410160016821F40041016000F046FAA9
:10056000636848F2A16CC0F2010C40F60011C0F2C1
:100570003D0163453CBF48F28041C0F21E01884204
:1005800002D2012001B0F0BD4DF68361C4F21B31EF
:10059000A0FB01122168970CD1F804E04FF4967685
:1005A0002EF03F0545EA92454D60774348F63816F0
:1005B0000D6AC0F24106A7FB067625F03F076345AA
:1005C00038BF960C721C3A430A62CA6948F2A066A8
:1005D0004CF6FF77C0F20106B34222EA07020BD8BD
:1005E00001385B00B0FBF3F001306FF31F300428DB
:1005F00098BF04201BE000BFA768013857B1192736
:100600007B43B0FBF3F001306FF31F3070B100F5A6
:10061000804007E003EB4303B0FBF3F001306FF3DE
:100620001F3018B100F5004001E000BF0120104369
:10063000C8610868D4E9072320F0C00010431843BC
:100640000860886848F2FF3204F10C0790438CCFB1
:1006500018431043A6698860C86820F0FF0038433B
:100660003043C860086840F0010008600020202185
:10067000206484F83D10206384F83E0001B0F0BD92
:1006800010B586B045F200410068C4F200010022B6
:100690008842CDE904220392029201D006B010BD37
:1006A00041F21804C4F20204206840F008002060FF
:1006B000206800F0080001900198C02002901220EC
:1006C000CDE903020320059001F5384002A9FFF7A8
:1006D00013FE606840F400106060606800F4001071
:1006E0000190019806B010BD40F2000040F2681180
:1006F000C2F20000C2F2000100780A6810440860EB
:100700007047000080B542F20000C4F202000168A8
:1007100041F010010160032000F07AF80F2000F092
:1007200005F800F027F8002080BD000070B540F209
:100730000006C2F2000640F208013278C2F200015F
:100740004FF47A730968B3FBF2F20446B1FBF2F19D
:10075000084600F05FFB0F2C4FF0010508D838B9B0
:100760004FF0FF3021460022002500F025F874608C
:10077000284670BD82B041F21800C4F20200016840
:10078000022241F001010160016801F001010191C3
:100790000199416841F080514160406800F080500B
:1007A000009000980420C4F20100016862F31A610D
:1007B000016002B07047000010B54EF60C5CCEF23E
:1007C000000CDCF80030C3F3022E8EF00704042C7A
:1007D00028BF0424BEF103034FF0FF3E0EFA04F4D9
:1007E00038BF0023A14399400EFA03F39A43114303
:1007F00000F00F0200F160430901043A03F564437D
:100800006244002848BF02F10C03197010BD0000BB
:100810004EF60C51CEF200010A684FF6FF031A4063
:1008200060F30A2242F0806040F0FD70086070477B
:10083000002804BF012070472DE9F04381B042F247
:100840000008C4F202080446D8F800000D4600F083
:10085000070088420CD2D8F8000020F00700284397
:10086000C8F80000D8F8000000F00700A8426CD1DA
:10087000206841F204098107C4F2020917D5410733
:1008800005D5D9F8001041F4E061C9F8001001075E
:1008900005D5D9F8001041F46051C9F80010D9F815
:1008A0000010A26821F0F0011143C9F80010C00740
:1008B00042D1D8F8000000F00700A8420CD9D8F8BF
:1008C000000020F007002843C8F80000D8F8000016
:1008D00000F00700A84238D12068410707D5D9F8B1
:1008E0000010E26821F4E0611143C9F8001000072C
:1008F00008D5D9F80000216920F4605040EAC10011
:10090000C9F80000D9F8002002F00C00082841F2D4
:100910000020C0F27A004DD142F2FC13C2F38341B1
:10092000C0F60003595CD20338D440F60010C0F280
:100930003D0048433EE000BF606859F8041C0228AF
:1009400008D0012826D1890306D4012001B0BDE8D2
:10095000F08300BF8901F8D5D9F8001021F0030118
:100960000843C9F80000FFF7D3FD064641F2883777
:10097000D9F80000616800F00C00B0EB810F98D04E
:10098000FFF7C6FD801BB842F2D9032001B0BDE8D5
:10099000F08300BF8907D8D5DEE700BFD9F8002073
:1009A00042F2FA13C2F34042C0F600039A5C484395
:1009B000B0FBF2F0D9F8001042F2E212C1F30311D9
:1009C000C0F60002515C40F2080220FA01F140F248
:1009D0000400C2F200000068C2F200021160FFF7DA
:1009E000A5FE002001B0BDE8F083000040F2080041
:1009F00041F20401C2F20000C4F202010068096879
:100A000042F2F212C1F30221C0F60002515CC8406A
:100A100070470000002804BF012070472DE9F04115
:100A200082B00446007841F20006C007C4F2020614
:100A30000CD0706800F00C00042840F08180306811
:100A4000800303D56068002800F046812078800785
:100A50001BD5706810F00C0F09D0706800F00C0006
:100A6000082840F087807068C00300F183803068F8
:100A7000800703D52069012840F02E813068616924
:100A800020F0F80040EAC10030602078000713D45D
:100A9000207840072CD4E569002D00F0188170689B
:100AA00000F00C00082840F0A780012D40F00481E0
:100AB000012002B0BDE8F081A069002800F0848028
:100AC0000020C4F242200121C0F88014FFF720FD6D
:100AD000054600BF706A800700F1B280FFF718FD7D
:100AE000401B0228F6D9032002B0BDE8F08100BF08
:100AF000F0695FEAC00808D4F06940F08050F06106
:100B0000F06900F080500090009847F20007C4F2AE
:100B100000073868C00549D4386840F480703860F0
:100B2000FFF7F6FC054600BF3868C0053ED4FFF766
:100B3000EFFC401B6428F7D9032002B0BDE8F08128
:100B4000706800F00C00082803D17068C0033FF5FE
:100B500076AF61683068002900F00C81B1F5A02FF4
:100B600000F00081B1F5803F40F01A8140F4803000
:100B70001CE100BF2069002840F20000C4F24220BE
:100B800000F0888001210160FFF7C2FC054600BF2C
:100B9000306880073FF572AFFFF7BAFC401B0228B0
:100BA000F6D9032002B0BDE8F08100BFE168306AE9
:100BB000002900F09D80052900F09280012940F075
:100BC000AF8040F00100B1E00020C4F242200021DB
:100BD000C0F88014FFF79CFC054600BF706A8007D0
:100BE0007FF556AFFFF794FC401B0228F6D903208F
:100BF00002B0BDE8F08100BF0027C4F24227002008
:100C00003866FFF785FC022D05460DD1306880015E
:100C100040F1DE80FFF77CFC401B02284FF0030010
:100C2000F4D902B0BDE8F081306880014FD5FFF7FC
:100C30006FFC401B02284FF00300F5D9F1E700BF1D
:100C400040F20800C2F20000006844F6D351C1F23D
:100C50006201A0FB0101480A019000BF00BF01989A
:100C6000411E002801913FF413AF00BF0198411EBF
:100C7000002801913FF40CAF00BF0198411E0028ED
:100C800001913FF405AF00BF0198411E002801917A
:100C9000E4D1FDE600210160FFF73AFC054600BF04
:100CA000306880077FF5F1AEFFF732FC401B022869
:100CB0004FF00300F4D9B4E77068216A00F4803281
:100CC0008A4209D1616A00F47010884204D1002080
:100CD00002B0BDE8F08100BF012002B0BDE8F081A4
:100CE00040F004003062306A40F001001EE000BFB6
:100CF00020F001003062306A20F004003062FFF71B
:100D000007FC054641F28837306A800720D5FFF797
:100D1000FFFB401BB8424FF00300F5D981E700BF4D
:100D200020F001003062306A20F004003062FFF7EA
:100D3000EFFB054641F28837306A800708D4FFF799
:100D4000E7FB401BB842F7D9032002B0BDE8F081B1
:100D5000B8F1000F3FF59FAEF06920F08050F061D0
:100D600099E600BF40F480203060306840F4803065
:100D70001CE000BF20F480303060306820F4802018
:100D80003060FFF7C5FB0546306880037FF55EAE37
:100D9000FFF7BEFB401B64284FF00300F4D940E787
:100DA00020F480303060306820F480203060FFF71D
:100DB000AFFB0546306880033FF548AEFFF7A8FB60
:100DC000401B6428F6D9032002B0BDE8F08100BFC3
:100DD000206AB0F5803F05D17168A26821F4003126
:100DE000114371607168626A21F474111143084300
:100DF000706001203866FFF78BFB04463068800185
:100E00003FF565AFFFF784FB001B02284FF003009E
:100E1000F4D906E7411E0020B0EB116F1CBF012082
:100E200070474EF21002CEF2000251604EF623518E
:100E3000CEF20001F0230B70072190601160704723
:100E400090F83C20012A04BF02207047B0B501F1A0
:100E500008053CCDD1E900CE23F47C5322F4705236
:100E60001A432EF4F0431A432CF4E0431A4324F4BB
:100E7000C0431A432A43C96922F4804203681143DC
:100E80005964002180F83C100020B0BD90F83C204F
:100E9000012A4FF0020228D010B580F83D200268E8
:100EA000D2F804E0D2F808C00C682EF07003234397
:100EB000B2F1804F53600BD042F60043C4F20103FD
:100EC0009A4205D040F20043C4F200039A4204D192
:100ED00049682CF08003194391600121002280F8B9
:100EE0003D1080F83C20BDE81040104670470000DF
:100EF000002804BF0120704710B590F83D1031B9AB
:100F0000002180F83C10044600F05CF820460221E5
:100F100080F83D10016842F6004C0B68B1F1804F3B
:100F2000C4F2010C18BF61453CD1846823F0700302
:100F30002343B1F1804F18BF61453BD1046923F4CD
:100F400040732343826923F08003D0F804E0C4682F
:100F50001A4361450A60CC62C1F828E002D14269B7
:100F6000CCF8302001224A610B69DB0703D00B6902
:100F700023F001030B6180F8462080F83E2080F8C2
:100F80003F2080F8402080F8412080F8422080F8FF
:100F9000432080F8442080F8452080F83D20002040
:100FA00010BD00BF40F20044C4F20004A142BCD016
:100FB000BFE700BF40F20044C4F20004A142BDD02C
:100FC000C0E7000082B0006840F20041C4F20001B6
:100FD000884215D042F60041C4F2010188421CD17A
:100FE00041F21800C4F20200016841F4006101609E
:100FF000006800F400600190019802B0704700BFE3
:1010000041F21800C4F20200416841F0020141605F
:10101000406800F002000090009802B070470000A5
:1010200090F83C20012A4FF002026CD080B580F885
:101030003D20D0F800C04FF67772DCF8083023EA84
:101040000202CCF808200B684F2B29DC1F2B45DD52
:10105000202B46D0302B44D0402B40F0AF80D1F82D
:1010600004E0C968DCF82030DCF8202022F001021E
:10107000CCF82020DCF8182022F0F00242EA01111E
:1010800023F00A0242EA0E02CCF81810CCF8202015
:10109000DCF8081041F0470121F0300128E000BFE2
:1010A0006F2B33DDB3F5005F74D0B3F5805F21D0D3
:1010B000702B40F08380D1E901E3C968DCF8082097
:1010C00043EA0E0322F47F4243EA01211143CCF8A4
:1010D0000810DCF8081041F0770109E00BB1102B83
:1010E0006CD1DCF8081021F07001194341F00701C0
:1010F000CCF808100022012180F83D10002180F872
:101100003C10BDE880401046704700BF502B21D0F6
:10111000602B53D1D1F804E0C968DCF82030DCF84A
:10112000202022F01002CCF82020DCF8182022F435
:10113000704242EA013123F0A00242EA0E12CCF8DA
:101140001810CCF82020DCF8081041F0670121F0DD
:101150001001CDE7D1F804E0C968DCF82030DCF8F4
:10116000202022F00102CCF82020DCF8182022F008
:10117000F00242EA011123F00A0242EA0E02CCF820
:101180001810CCF82020DCF8081041F0570121F0AD
:101190002001ADE7D1E901E3C968DCF8082043EAA2
:1011A0000E0322F47F4243EA01211143CCF80810D8
:1011B000DCF8081041F480419AE700BF01229AE769
:1011C00090F83C30012B04BF022070474FEAB20276
:1011D000032A00F2F1802DE9F043DFE802F003A5D5
:1011E0003B7500BF036842F600461D6A1A6AC4F2E6
:1011F000010622F001021A621A465C6852F818CF02
:10120000B3428E68D1F800E025F0020545EA0605F4
:101210000CD1CE68D1E9057824F4407425F00C0592
:1012200026F004063C43354344EA08042CF07307D7
:1012300047EA0E075C609F614F6809695F631D6242
:101240009F6947F008079F619F6927F004079F6126
:10125000A6E000BF036842F600461D6A1A6AC4F29F
:10126000010622F480721A621A46D3F804C052F8BA
:101270001CEFB3428E680C6825F4007545EA06251C
:101280000FD1CE68D1E90598360240F2FF4725F428
:101290004065BE4335432CF4405748EA090647EA07
:1012A000061C2EF073072743C3F804C0DF614F68A4
:1012B0000969DF631D62DF6947F00807DF61DF69E5
:1012C00027F00407DF616BE0036842F60047D3F8BC
:1012D00020C01A6AC4F2010722F480521A621A4628
:1012E0005C6852F81C5FD1F800E08E68BB4204D104
:1012F0004F6924F4804444EA87142CF4005747EAE9
:10130000063725F4E64646EA0E265C60DE614E6846
:1013100009691E641F62DF6947F40067DF61DF69E6
:1013200027F48067DF613AE0036842F600461D6AF1
:101330001A6AC4F2010622F010021A621A46D3F8A1
:1013400004C052F8184FB3428E68D1F800E025F07F
:10135000200545EA06150FD1CE68D1E905986FF052
:10136000400725F0C00507EA061635432CF4406710
:1013700048EA090647EA860C24F4E64444EA0E27C4
:10138000C3F804C09F614F6809699F631D629F692C
:1013900047F400679F619F6927F480679F61090296
:1013A0001368194311600021BDE8F043002280F862
:1013B0003C200846704700BF0121002280F83C20F5
:1013C00008467047002804BF0120704710B590F808
:1013D0003D1031B9002180F83C10044600F05CF863
:1013E0002046022180F83D10016842F6004C0B684F
:1013F000B1F1804FC4F2010C18BF61453CD1846843
:1014000023F070032343B1F1804F18BF61453BD1F6
:10141000046923F440732343826923F08003D0F8E6
:1014200004E0C4681A4361450A60CC62C1F828E050
:1014300002D14269CCF8302001224A610B69DB07F6
:1014400003D00B6923F001030B6180F8462080F87C
:101450003E2080F83F2080F8402080F8412080F82E
:10146000422080F8432080F8442080F8452080F80E
:101470003D20002010BD00BF40F20044C4F2000433
:10148000A142BCD0BFE700BF40F20044C4F2000458
:10149000A142BDD0C0E7000070470000C1B10429DF
:1014A00008D0082914BF41224022825C012A05D0BD
:1014B00016E000BF3F22825C012A11D102220829D6
:1014C00010D0042914BF80F8412080F83F200BE0A1
:1014D00090F83E20012A03D1022280F83E2003E04A
:1014E0000120704780F84020006801F01F010122B0
:1014F000036A8A4023EA02010162036A42F6444118
:10150000C4F201011A43A1F144039842026203D0DC
:10151000B0F1804F07D112E00A6842F400420A603D
:10152000B0F1804F0BD042F60041C4F20101884275
:1015300005D040F20041C4F20001884206D1816822
:1015400001F00701062904BF00207047016841F03F
:101550000101016000207047FEE700002DE9F0471F
:1015600086B0002741F21800CDE90477CDE9027773
:10157000C4F20200016840F6000441F0100101606D
:101580000168C4F2010401F01001019101990168A0
:10159000012241F02001016001684FF0180A01F0BA
:1015A00020010191019901684FF0010841F0040107
:1015B0000160016801F0040101910199016841F0A5
:1015C000080101600068182100F0080001900198EE
:1015D0002046FEF797FF04F5806528464FF47041DA
:1015E00001224FF47049FEF78DFF4FF4604002AEC8
:1015F000CDE9020704F5006031460497FEF77CFE52
:10160000CDE902A84FF0030A204631460497CDF8F1
:1016100014A0FEF771FE40F63870CDE902072846A7
:1016200031460497FEF768FE28463146CDE9029818
:10163000CDE9047AFEF760FE4FF40040CDE90207E1
:10164000204631460497FEF757FE06B0BDE8F08706
:1016500080B540F2800045F20041C2F20000C4F2C1
:10166000000148F2A06200234FF4804CC0F2010256
:1016700080E80E00C0E9033CC0E90533C0E9073348
:10168000FEF74CFF002808BF80BDBDE88040FEF794
:1016900019BE000070B59CB040F60004C4F201040D
:1016A00040F2D400002104F51052C2F2000040F2D2
:1016B000E7331691CDE914111191CDE90F11CDE960
:1016C0000D11CDE90B11CDE90911CDE90711CDE9D6
:1016D0000511CDE90311CDE90111C0E90021C0E9EF
:1016E0000213C0E904118161FFF702FC002818BF52
:1016F000FEF7E8FD4FF48050139040F2D400C2F2A0
:10170000000013A9FFF78CFC002818BFFEF7DAFDD4
:1017100040F2D400C2F20000FFF754FE002818BFC8
:10172000FEF7D0FD40F2D4000025C2F2000010A95F
:10173000CDE91055FFF7AAFB002818BFFEF7C2FD40
:101740006020CDE9090540F2D400C2F2000009A9E9
:101750000022CDE90B55CDE90D550F95FFF730FD72
:10176000002818BFFEF7AEFD7020099040F2D400AB
:10177000C2F2000009A90422FFF722FD002818BFC9
:10178000FEF7A0FD40F2D400C2F2000009A9082231
:10179000FFF716FD002818BFFEF794FD40F2D400B5
:1017A000C2F2000009A90C22FFF70AFD002818BFA9
:1017B000FEF788FD40F2D4054FF40050C2F2000558
:1017C0000026069001A928460596CDE90366CDE9D5
:1017D00001660896FFF734FB002818BFFEF772FD7C
:1017E000286840F20041C4F2000188421B96CDE90E
:1017F0001966189618D042F60041C4F201018842D9
:101800003CD141F21800C4F20200016841F0040129
:101810000160006800F00400179017984FF47060A2
:1018200018900220199023E041F21800C4F202003F
:101830000168022541F004010160016801F0040122
:1018400017911799016841F008010160006818A913
:1018500000F0080017901798C0201890204619959E
:101860001B95FEF749FD032004F58064CDE91805BA
:1018700002201B9018A92046FEF73EFD1CB070BD4B
:10188000B0B594B040F60004C4F2010440F21C105C
:101890000021A4F58232C2F2000040F2E7330E913B
:1018A000CDE90C110991CDE90711CDE90511CDE97B
:1018B0000311CDE90111C0E90021C0E90213016162
:1018C0008161FFF715FB002818BFFEF7FBFC4FF402
:1018D00080500B9040F21C10C2F200000BA9FFF7E1
:1018E0009FFB002818BFFEF7EDFC40F21C10C2F26F
:1018F0000000FFF767FD002818BFFEF7E3FC40F289
:101900001C100025C2F2000008A9CDE90855FFF718
:10191000BDFA002818BFFEF7D5FC7020CDE90105FF
:1019200040F21C10C2F2000001A9002203950595A7
:10193000FFF746FC002818BFFEF7C4FC40F21C105D
:10194000C2F2000001A90422FFF73AFC002818BFE8
:10195000FEF7B8FC40F21C10C2F2000001A90822F8
:10196000FFF72EFC002818BFFEF7ACFC40F21C1558
:10197000C2F2000501A928460C22FFF721FC00282D
:1019800018BFFEF79FFC286840F20041C4F2000136
:1019900088424FF00001CDE91211CDE9101119D0A4
:1019A00042F60041C4F2010188423DD141F21800E3
:1019B000C4F20200016841F004010160006800F017
:1019C00004000F900F984FF4706010900220119057
:1019D00024E000BF41F21800C4F2020001680225B1
:1019E00041F004010160016801F004010F910F99B9
:1019F000016841F008010160006810A900F00800CA
:101A00000F900F98C0201090204611951395FEF767
:101A100073FC032004F58064CDE9100502201390C7
:101A200010A92046FEF768FC14B0B0BDFEE7000028
:101A300010B540F21C14C2F2000420460021FFF74A
:101A40002DFD20460421FFF729FD20460821FFF740
:101A500025FD20460C21FFF721FD40F2D404C2F2FF
:101A6000000420460021FFF719FD20460421FFF75E
:101A700015FD20460821FFF711FD20460C21BDE889
:101A80001040FFF70BBD0000FEE7000070B540F20C
:101A90007006C2F200060024346000F073F9307A58
:101AA000002808BF6FF00204717AB1FA81F20029B0
:101AB0004FEA521208BF023C0028B07A08BF013238
:101AC000002808BF013CF07A08BF0132337B0028B0
:101AD000B3FA83F110464FEA511508BF0130022ACC
:101AE000294698BF2144022888BF2946002B08BFF9
:101AF0000130727B022888BF0021002A04BF023116
:101B00000130B27B022888BF0021002A04BF0331C4
:101B10000130022888BF002149B240B291FBF0F0A9
:101B2000716840B230600C1800EB8010642CA8BFC4
:101B30006424746000F0FCF90546204600F0F8F9D2
:101B40004CF6CD41C3F6CC5100F00AFA294600F01C
:101B500071F900F0D1F970BD7047000070470000C6
:101B60004242B2F5C87F4FF67061A8BF4FF4C87209
:101B7000CFF6FF7112F5C87FC8BF114600280BDDF4
:101B800040F21C10C2F2000000684FF47A7201F5B6
:101B90007A7142638163704740F21C10C2F2000008
:101BA0000068C1F57A7141634FF47A7181637047BF
:101BB000B0F5C87F02464FF67061A8BF4FF4C872F7
:101BC000CFF6FF7112F5C87FC8BF114670B101286A
:101BD00016DB40F21C10C2F200000068C1F57A71F9
:101BE000C1634FF47A710164704700BF40F21C106A
:101BF000C2F2000000684FF47A71C163016470475B
:101C000040F21C10C2F2000000684FF47A7201F535
:101C10007A71C263016470474FF67061CFF6FF714D
:101C200010F5C87FC8BF0146B1F5C87FA8BF4FF403
:101C3000C871002840F2D400C8BFC1F57A71C2F261
:101C40000000002908D40068C1F57A7141634FF49F
:101C50007A718163704700BF0068002201F57A71D4
:101C60004263816370470000B0F5C87F02464FF6BB
:101C70007061A8BF4FF4C872CFF6FF7112F5C87F2C
:101C8000C8BF114670B1012816DB40F2D400C2F281
:101C900000000068C1F57A71C1634FF47A71016484
:101CA000704700BF40F2D400C2F2000000684FF459
:101CB0007A71C1630164704740F2D400C2F200003F
:101CC00000684FF47A7201F57A71C263016470475B
:101CD000FEF70ABD70470000FEE7000090B0FEF777
:101CE00011FD06AC201D2421FEF784FA0220069087
:101CF00001200A9010200B90002520460D95FEF73C
:101D000089FE28B1EFF3108072B600BFFEE700BF76
:101D10000F20CDE9010501A80021CDE90355059566
:101D2000FEF786FD20B1EFF3108072B6FEE700BF2C
:101D3000FFF714FCFFF78CFCFFF7ACFCFFF7A0FDEE
:101D4000FFF776FE642000F001F8FBE740F264152F
:101D50000446C2F2000500BFFFF798FE2860201A73
:101D6000FFF7FEFE2868201AFFF722FF28682044AC
:101D7000FFF752FF28682044FFF776FF0120FEF7A7
:101D8000A7FAE9E770B540F60044C4F20104204622
:101D90004FF48061FEF7B0FB40F27006C2F200061D
:101DA000307220464FF40061FEF7A6FB04F5806513
:101DB000707228464FF40041FEF79EFBB072284631
:101DC0004FF48041FEF798FBF07228464FF4005123
:101DD000FEF792FB307320464FF40071FEF78CFB48
:101DE000707320464FF48071FEF786FB317A727A69
:101DF000B1FA81F14909B37A3172B2FA82F1490933
:101E0000F57A7172B3FA83F14909B172B5FA85F1C5
:101E1000327B4909F172B2FA82F1727B490931735E
:101E2000B2FA82F1B0FA80F0490940097173B073D7
:101E300070BD000090EA010F48BF81F0004100F141
:101E40006281421A3CBF801A89184FEAD052A2EB35
:101E5000D1534FF07F4C1CEA410F18BF9CEA026F30
:101E600000F03B804FF0004C4CEA00204CEA01218E
:101E700021FA03FC10EB0C0C1ED202F1FF325FEAD8
:101E80001C2040EBC25038BF70471CF07F0F4FEA58
:101E9000400C18BFBCF17F4F38BF7047C3F120031F
:101EA000994008BF20F00100BCF17F4F38BF704758
:101EB000A0F1C04000F01BB94FEA3C00000A40EB23
:101EC000C25028BF1CF0FF0F4FEA400CE6D018BFED
:101ED000BCF17F4F38BF7047EAE79CEA026F05D03C
:101EE00010EA5C0F08BF00F00040704710B500F02A
:101EF000B8F800BF64FBBE3E41000B0ED3F19E025A
:101F000008D950F400034FEA032323FA02F048BF34
:101F10004042704710B500F0A4F800BF49922480F9
:101F2000002070476FF0004282EA200070470000F6
:101F300010F0004148BF4042B0FA80F310FA03F2BB
:101F4000C3F19D030BD051EAC35101EB122053069C
:101F500038BF704700F1010008BF20F00100704752
:101F60004FF47F0C1CEAD0121EBF1CEAD11392EA78
:101F70000C0F93EA0C0F00F0478090EA010F48BF66
:101F800042F480724FF0004C4CEA00204CEA0121F0
:101F900002EB0302A0FB0113A2F50002002918BF07
:101FA00043F001035B0028BF4FEA330342EB2242B8
:101FB0005FEA132C4CEBC2502EBFBCEB436FB2F563
:101FC0007C0F70474FEA036CBCF1004F08BF20F054
:101FD0000100B2F57C0F38BF70470BD582F0FF02CD
:101FE00012F5803FC8BF704700F1C040D8BF00F075
:101FF0000040704700F5000C5FEA4C0C48BF70478A
:10200000B0F1C04000F073B80CEAD11390EA010FB0
:1020100048BF42F48072624538BF634504D280EA0B
:10202000010000F00040704710B500F01AF800BF42
:102030008900013E00F007B800F009B85FEA410CE2
:102040005FEA1C6C08D080EA010000F050B85FEA3B
:10205000400C5FEA1C6CF6D14FF00040A0F5800008
:1020600070470EF1020E2EF0030E5EF8044B244270
:1020700004D44FEA4102B2F17F4F11D84FEA400336
:10208000B3F17F4F0CD80ED14FEAD07C0CEB4C0C47
:102090000CF1020CB2F17F4F08BF4CEBD17C04E095
:1020A0004FF0080C01E04FEAD17C0CEB4C0324FA12
:1020B00003F404F00704B4F1040C06D20EEB840C14
:1020C000BDE810404CF0010C6047DFE80CF0070859
:1020D00002024FF00040A0F5800010BD084642000B
:1020E00018BFD2F1807288BF00F0004010BDFF2100
:1020F00041EAD050C005704790EA010F48BF81F017
:1021000000413FF59EAE421A04D882F00042A0EB97
:10211000020011444FEAD052A2EBD1534FF07F4C52
:102120001CEA410F18BF9CEA026F4AD04FF0004CE6
:102130004CEA00204CEA012121FA03FCB0EB0C0C24
:102140000FD412F0FE0F36D05FEA4C001DD50012FE
:1021500040EBC25038BF70471CF03F0F18BF7047AC
:102160000BE05FEA1C20A2F1010240EBC25038BF35
:1021700070471CF07F0F18BF7047C3F120039940D0
:1021800014BF401E20F0010070474FEA1223800860
:1021900008BF7047B0FA80FCA2EB0C02CCF1280C0F
:1021A00060FA0CF093EA122F04BF00EBC2507047A4
:1021B0004FEAC3707047130A5FEADC1008BF70472C
:1021C000F6E79CEA026F04D010EA5C0F08BF00201B
:1021D000704710B5FFF745FF40DFF63E81F0004045
:1021E0007047000000000000000001020304060721
:1021F00008090000000001020304010202030405B3
:10220000060708090A0B0C0D0E0F101030220008EB
:1022100000000020100000005001000840220008CB
:10222000100000206007000070010008000000009E
:10223000010000001000000000127A000000000001
:04000005080000ED02
:00000001FF
