:020000040800F2
:10000000780700208901000835140008F510000861
:10001000E11300088F020008B31800080000000078
:10002000000000000000000000000000F7140008BD
:100030009102000800000000F514000825160008D1
:10004000A3010008A3010008A3010008A301000800
:10005000A3010008A3010008A3010008A3010008F0
:10006000A3010008A3010008A3010008A3010008E0
:10007000A3010008A3010008A3010008A3010008D0
:10008000A3010008A3010008A3010008A3010008C0
:10009000A3010008A3010008A3010008A3010008B0
:1000A000A3010008A3010008A3010008A3010008A0
:1000B000A3010008A301000800000000A30100083C
:1000C000A30100080000000000000000A3010008D8
:1000D00000000000A3010008A301000800000000C8
:1000E000A3010008A3010008A301000800F002F822
:1000F00000F03AF80AA090E8000C82448344AAF188
:100100000107DA4501D100F02FF8AFF2090EBAE885
:100110000F0013F0010F18BFFB1A43F0010318473B
:10012000681C0000881C0000103A24BF78C878C101
:10013000FAD8520724BF30C830C144BF04680C60ED
:10014000704700000023002400250026103A28BF35
:1001500078C1FBD8520728BF30C148BF0B60704739
:100160001FB51FBD10B510BD00F058F81146FFF7C0
:10017000F7FF01F0BDFB00F076F803B4FFF7F2FFE4
:1001800003BC00F07DF8000009488047094800479B
:10019000FEE7FEE7FEE7FEE7FEE7FEE7FEE7FEE737
:1001A000FEE7FEE704480549054A064B7047000094
:1001B00079160008ED00000878010020780700207B
:1001C00078030020780300204FF0000200B51346AA
:1001D00094469646203922BFA0E80C50A0E80C5067
:1001E000B1F12001BFF4F7AF090728BFA0E80C5018
:1001F00048BF0CC05DF804EB890028BF40F8042B11
:1002000008BF704748BF20F8022B11F0804F18BF7D
:1002100000F8012B7047704770477047754600F033
:100220002BF8AE4605006946534620F00700854688
:1002300018B020B5FFF7B6FFBDE820404FF000062C
:100240004FF000074FF000084FF0000B21F00701BE
:10025000AC46ACE8C009ACE8C009ACE8C009ACE801
:10026000C0098D46704710B50446AFF300802046A4
:10027000BDE81040FFF781BF00487047140100201F
:1002800001491820ABBEFEE7260002007047FEE7DA
:10029000704772B6FEE7000070B5044600F0F8F84B
:1002A0000546601C02D004480078044400F0F0F8D1
:1002B000401BA042FAD370BD200000202DE9F84F6A
:1002C000DFF89C910024A9F1040B23460F2709F1C4
:1002D000040AABF1040EBBE00125A5402A40AA4266
:1002E00076D1DFF880C14E68A6EB0C0866452BD0AE
:1002F0000DDC032E34D005DC36B3012E19D0022ECE
:100300002FD11BE0112E16D0122E2AD119E0B8F5EC
:10031000881F19D006DCB8F5803F15D0B8F5801FCE
:100320001FD111E0B8F5001F0ED0B8F5041F18D189
:100330000AE0CB6815E0CB681B1D12E0CB680833E0
:100340000FE0CB680C330CE08B682BB1012B4FF026
:10035000080303D0456104E0042302E0056100E0E6
:100360000023FF2A01D8064601E000F104064FEA07
:10037000840501D9A5F12005D6F8008007FA05FC0F
:1003800028EA0C0803FA05F548EA0508C6F80080D3
:100390004D68ED005BD5344DAE6946F00106AE61A7
:1003A000AD6924F0030605F0010500952F4D06EB1D
:1003B000050CDCF80850A607360F07FA06F825EA00
:1003C0000805DFF8AC80404503D14FF0000810E08D
:1003D0003DE0DFF8A080404502D14FF0010808E081
:1003E000DFF89480404502D14FF0020801E04FF061
:1003F000030808FA06F848EA0508CCF808804D68B2
:10040000D9F80060ED024D4601D5164300E0964351
:100410002E604D68DAF80060AD02554601D51643EE
:1004200000E096432E604D68DBF80060AD035D464A
:1004300001D5164300E096432E604D68DEF800605B
:10044000ED03754601D5164300E096432E60641C0B
:100450000A6832FA04F57FF43FAFBDE8F88F000078
:10046000080401400000111000100240000001408B
:1004700000080140000C0140001001408068084065
:1004800000D0012070470AB1016170470904FBE701
:1004900001488068704700002000002070B504000B
:1004A00025D094F83D00002520B984F83C50204622
:1004B00000F0B8F8242084F83D002068016821F09D
:1004C000010101602068016841F400410160206879
:1004D000016821F40041016000F0F2F94D4A6168C1
:1004E000914201D84C4900E04C49884201D2012098
:1004F00070BD4B492368B0FBF1F15E6826F03F0602
:100500000E435E606368934206D94FF49673594375
:100510004FF47A73B1FBF3F12368491C1E6A26F08D
:100520003F06314319626168914210D84900401E6C
:10053000B0FBF1F2521CC2F30B02042A01D20420D8
:1005400022E0B0FBF1F0401CC0F30B001CE0A268FD
:10055000F2B301EBC10303EB0116431EB3FBF6F349
:100560005B1C43F480431B0549D092B301EBC102ED
:1005700002EB0111401EB0FBF1F0401CC0F30B0078
:1005800040F4804040F400402168CA694CF6FF7393
:100590009A431043C861D4E90710014320680268F8
:1005A00022F0C00211430160D4E903010143206835
:1005B000826848F2FF339A4311438160D4E9050110
:1005C00008432168CA6822F0FF021043C86001E0B6
:1005D0000EE016E02068016841F001010160256429
:1005E000202084F83D00256384F83E50002070BD33
:1005F00001EB4106431EB3FBF6F35B1CB3E701209E
:10060000C2E701EB4101401EB0FBF1F0401CC0F31A
:100610000B00B7E7A086010080841E0000093D00A2
:1006200040420F0010B586B0002100910191029167
:10063000039100680F4988421AD10F4CA06940F01D
:100640000800A061A069694600F008000490C0207D
:10065000009012200190032003900848FFF72EFE1F
:10066000E06940F40010E061E06900F400100490DB
:1006700006B010BD0054004000100240000C0140C4
:100680000248816802781144816070472000002090
:10069000074810B5016841F010010160032000F027
:1006A00067F80F2000F006F800F024F8002010BDD5
:1006B0000020024070B50D4D04464FF47A71287841
:1006C000B1FBF0F00A490968B1FBF0F000F0BEFAA6
:1006D00048B9102C07D200222146501E00F028F8FD
:1006E00000206C6070BD012070BD00002000002063
:1006F0002C0000200C4808B5816941F0010181619E
:10070000816901F001010091C16941F08051C1612D
:10071000C06900F0805000900448416821F0E06119
:1007200041F00071416008BD00100240000001402E
:10073000F0B40E4B1B680C46C3F30223C3F107054C
:10074000042D00D90425191D072901D2002300E03A
:10075000DB1E012606FA05F1491E214099409E4004
:10076000761E16403143F0BC01F0A4B80CED00E059
:10077000064900F0070208684FF6FF03184040EAF8
:100780000220034A10430860704700000CED00E0AF
:100790000000FA052DE9F0470F46050061D0434EF1
:1007A000306800F00700B84209D2306820F0070036
:1007B00038433060306800F00700B84251D12868F3
:1007C0003B4C810712D5400703D5606840F4E060D8
:1007D00060602878000703D5606840F4605060606E
:1007E0006068A96820F0F000084360602878C007BE
:1007F00028D06868012810D02168022810D0890705
:1008000000292EDA616821F0030101436160FFF7DE
:100810003FFE804641F288390DE021688903EFE709
:100820008901EDE7FFF734FEA0EB0801494502D945
:100830000320BDE8F0876068696800F00C00B0EB49
:10084000810FEFD1306800F00700B8420BD9306853
:1008500020F0070038433060306800F00700B842ED
:1008600001D00120E5E72878400705D56068E968F0
:1008700020F4E060084360602878000706D56068CF
:10088000296920F4605040EAC100606000F028F857
:100890006168084AC1F30311515CC8400649086009
:1008A00006480068FFF706FF0020C2E7002002406C
:1008B00000100240701D00082C00002024000020C1
:1008C0000448054900684968044AC1F30221515CA3
:1008D000C84070472C00002000100240801D000816
:1008E0000E4A51680E4801F00C03042B11D0082B5E
:1008F0000FD10C48C1F38343C903C05C0AD55168CA
:10090000084AC1F34041921E515C054A5043B0FB76
:10091000F1F070470449484370470000001002405E
:1009200000127A00601D000800093D002DE9F84F13
:10093000040070D02078C04DC00749D06868C0F36B
:100940008100012807D06868C0F38100022809D11E
:100950006868C00306D52868800339D56068002818
:10096000E7D035E06068B0F5803F0BD010B1B0F54E
:10097000A02F11D0286820F480302860286820F447
:10098000802002E0286840F480302860606890B1E0
:10099000FFF77EFD06460AE0286840F480202860C4
:1009A000F0E700BFFFF774FD801B642873D8286848
:1009B0008003F7D50CE0FFF76BFD064605E000BFAE
:1009C000FFF766FD801B6428F0D828688003F7D401
:1009D00020789A4E80074FF001094FF0000839D572
:1009E000686810F00C0F07D06868C0F38100022817
:1009F00009D16868C00306D42868800714D5206927
:100A0000012808D110E02069B0B1C6F80090FFF7C6
:100A10003FFD074605E00AE1FFF73AFDC01B02284B
:100A2000C4D828688007F7D52868616920F0F800E5
:100A300040EAC10028600DE0C6F80080FFF728FDFD
:100A4000074604E0FFF724FDC01B022823D82868CE
:100A50008007F7D4207800072CD57948A169D9B14F
:100A6000C0F80090FFF714FD074604E0FFF710FD03
:100A7000C01B02280FD8686A8007F7D571484FF469
:100A8000FA510068B0FBF1F0009000BF0098411EE1
:100A90000091FAD20EE080E0C0F80080FFF7F8FC89
:100AA000074604E0FFF7F4FCC01B022875D8686A0B
:100AB0008007F7D42078400760D5E8690027C00098
:100AC00008D4E86940F08050E861E869012700F047
:100AD000805000905C480168C90513D401688346C2
:100AE00041F480710160FFF7D3FC824606E000BF4D
:100AF000FFF7CEFCA0EB0A0064284ED8DBF800001C
:100B0000C005F5D5E06801280AD008B1052813D042
:100B1000286A20F001002862286A20F0040002E020
:100B2000286A40F001002862E06841F2883B98B1F1
:100B3000FFF7AEFC82460BE0286A40F00400286212
:100B4000EEE700BFFFF7A4FCA0EB0A0159455AD815
:100B5000286A8007F6D50CE0FFF79AFC824605E08C
:100B6000FFF796FCA0EB0A0159454CD8286A80078C
:100B7000F6D41FB1E86920F08050E861E06988B3DD
:100B80006968C1F38101022944D00228C6F8608057
:100B900004D0FFF77DFC044638E034E0FFF778FC32
:100BA000074604E0FFF774FCC01B02282BD8286816
:100BB0008001F7D4206AB0F5803F05D16868A1684C
:100BC00020F4003008436860D4E9080108436968EC
:100BD00021F4741108436860C6F86090FFF758FC70
:100BE000044606E025E000BFFFF752FC001B022888
:100BF00009D828688001F7D51BE000BFFFF748FC43
:100C0000001B022802D90320BDE8F88F2868800164
:100C1000F4D40EE00128F7D06868226A00F480312D
:100C2000914204D1616A00F47010884201D0012021
:100C3000EAE70020E8E7000000100240000042421E
:100C4000800442422C0000200070004010B5401E7D
:100C5000B0F1807F01D3012010BD4FF0E02460612E
:100C60000F21601700F026FE0020A0610720206100
:100C7000002010BD10B590F83C20012A22D001229E
:100C800080F83C20CA688C6822F4407222434C6889
:100C900022F4806222430C6822F4006222430C6931
:100CA00022F4805222434C6922F400522243C96943
:100CB000002322F480420A4301684A6480F83C30F1
:100CC000002010BD022010BD70B590F83C20012A14
:100CD00023D0012480F83C40022280F83D200368A4
:100CE0005A689D6822F070060A6832435A600C4BBD
:100CF00002689A4205D0B2F1804F02D0094B9A4265
:100D000004D1496825F080031943916080F83D4083
:100D1000002180F83C10084670BD022070BD000024
:100D2000002C01400004004010B5040003D094F8EA
:100D30003D0010B107E0012010BD002084F83C0008
:100D4000204600F01FF8022084F83D00211D206895
:100D500000F094FC012084F8460084F83E0084F8FA
:100D60003F0084F8400084F8410084F8420084F891
:100D7000430084F8440084F8450084F83D000020D6
:100D800010BD000008B50C4A01680C48914207D11B
:100D9000816941F400618161806900F4006009E0CB
:100DA000074A914207D1C16941F00201C161C0699E
:100DB00000F00200009008BD002C0140001002402D
:100DC0000004004070B5044690F83C00002501285E
:100DD00017D0012684F83C60022084F83D0020688A
:100DE000826822F0770222F47F42826008685028ED
:100DF00038D00DDC20284FD005DC90B3102811D15D
:100E00004AE0022070BD302846D040280AD13BE09D
:100E100060282FD070280DD0B0F5805F03D0B0F5DA
:100E2000005F12D0012584F83D60002084F83C006A
:100E3000284670BDCB68D1E90121206800F061FC33
:100E40002068816841F0770109E0CB68D1E9012190
:100E5000206800F056FC2068816841F48041816080
:100E6000E1E719E0CA684968206800F0FFFC5021FA
:100E7000206806E0CA684968206800F008FD602123
:100E8000206800F048FCCEE7CA684968206800F096
:100E9000EDFC40212068F4E7226801461046F0E7A7
:100EA00010B586B0002100910191029103911D4B74
:100EB00002681D4902241D489A420ED18A6942F0F7
:100EC00004028A618969039401F0040104914FF4DA
:100ED0007061CDE9001469461FE0154B9A421ED19E
:100EE0008A6942F004028A618A6902F0040204926B
:100EF0008A6942F008028A618969039401F0080155
:100F00000491C021CDE900146946FFF7D7F9032009
:100F1000CDE90004694607480394FFF7CFF906B00E
:100F200010BD0000002C01400010024000080140EC
:100F300000040040000C014070B5044690F83C00ED
:100F400000260D4601280FD0012084F83C006AB12C
:100F5000042A1DD0082A2FD00C2A3FD001260020B9
:100F600084F83C00304670BD022070BD206800F05F
:100F7000DBFB2068816941F008018161206881699B
:100F800021F004018161206881692A69114311E01F
:100F9000206800F0F1FB2068816941F40061816103
:100FA0002068816921F480618161206881692A69F2
:100FB00041EA02218161D2E7206800F009FC206843
:100FC000C16941F00801C1612068C16921F00401D3
:100FD000C1612068C1692A69114311E0206800F0ED
:100FE00023FC2068C16941F40061C1612068C169C6
:100FF00021F48061C1612068C1692A6941EA022146
:10100000C161ACE710B5040003D094F83D0010B105
:1010100007E0012010BD002084F83C00204600F0CD
:101020001EF8022084F83D00211D206800F026FBF8
:10103000012084F8460084F83E0084F83F0084F8DC
:10104000400084F8410084F8420084F8430084F8AA
:10105000440084F8450084F83D00002010BD70472E
:1010600010B50446022249B104290ED0082913D034
:1010700094F84100012816D0012010BD94F83E00DC
:101080000128F9D184F83E200FE094F83F000128B0
:10109000F2D184F83F2008E094F840000128EBD119
:1010A00084F8402001E084F841200122206800F00B
:1010B0001BFB0E492068884203D1426C42F4004277
:1010C00042642068884205D0B0F1804F02D00849C0
:1010D000884204D1816801F00701062903D0016824
:1010E00041F001010160002010BD0000002C014012
:1010F00000040040FEE700002DE9F04385B0002425
:1011000032480094019402940394816941F01001E3
:101110008161816901F010010491816941F0200130
:101120008161816901F020010491816941F004012C
:101130008161816901F004010491816941F0080134
:1011400081618069DFF8889000F008000490012236
:1011500018214846FFF797F9DFF878804FF4704779
:10116000012239464046FFF78EF94FF46040CDE941
:101170000004694618480294FFF7A0F818200125DA
:101180000326CDE90005CDE9024669464846FFF74A
:1011900095F840F63870CDE900046946404602945F
:1011A000FFF78CF800970396CDE901546946404655
:1011B000FFF784F8E803CDE9000469464846029445
:1011C000FFF77CF805B0BDE8F08300000010024096
:1011D00000080140000C0140001001400D4810B50E
:1011E0000B4901600C49416000214FF4804281604D
:1011F000C0E9031241618161C1610162FFF74EF9EB
:10120000002803D0BDE81040FFF743B810BD000030
:101210000054004030000020A086010010B596B0B8
:1012200000240F9410941194129413941C21684676
:101230001494FEF7C9FF202107A8FEF7C5FF354823
:101240003349C0E9001440F2E731C0E902410461CA
:1012500044618461FFF768FD08B1FFF71AF84FF4A5
:1012600080500F900FA92B48FFF7ACFD08B1FFF796
:1012700010F82848FFF7C6FE08B1FFF70AF81394E4
:1012800013A924481494FFF71FFD08B1FFF701F8D4
:101290006020CDE900040294039404940594002294
:1012A00069461C480694FFF747FE08B1FEF7F1FFB8
:1012B00070200090042269461648FFF73DFE08B1F1
:1012C000FEF7E7FF082269461248FFF735FE08B12E
:1012D000FEF7DFFF0C2269460E48FFF72DFE08B12E
:1012E000FEF7D7FF0794089409944FF400500A942E
:1012F000CDE90B4007A907480E94FFF7BBFC08B1E6
:10130000FEF7C7FF0348FFF7CBFD16B010BD000086
:10131000002C01408400002010B58EB000240794FA
:10132000089409940A940B941C2168460C94FEF7C7
:101330004BFF2A482849C0E9001440F2E731C0E9D0
:10134000024104618461FFF7EFFC08B1FEF7A1FFE1
:101350004FF48050079007A92048FFF733FD08B1EC
:10136000FEF797FF1D48FFF74DFE08B1FEF791FF0E
:101370000B940BA919480C94FFF7A6FC08B1FEF7D3
:1013800088FF7020CDE900040294002269461348CA
:101390000494FFF7D1FD08B1FEF77BFF04226946F4
:1013A0000E48FFF7C9FD08B1FEF773FF0822694632
:1013B0000A48FFF7C1FD08B1FEF76BFF0C22694632
:1013C0000648FFF7B9FD08B1FEF763FF0348FFF7D2
:1013D00067FD0EB010BD000000040040CC000020EE
:1013E000FEE7000010B500211048FFF739FE042188
:1013F0000E48FFF735FE08210C48FFF731FE0C219F
:101400000A48FFF72DFE00210948FFF729FE0421B5
:101410000748FFF725FE08210548FFF721FEBDE834
:1014200010400C210248FFF71BBE0000CC0000203A
:1014300084000020FEE700002DE9F0470025DFF8DA
:10144000B0802C464127DFF8A4902E46C8F8005003
:1014500000F07AFAE81E08F114010A18D278002A7E
:1014600008D000BF4FF0000202FB005505D14FF03D
:10147000010204E04FF00102F6E74FF000021444CD
:10148000032C00DB0025401C0328E6DD95FBF4F56A
:10149000C8F80050C8F80450D8F80800444628445A
:1014A000C8F80800D8F81010691AC4E903156428B0
:1014B00001DD6420A06006FB01F000F0F7FA0646AB
:1014C000A06800F0F3FA494600F008FB044607FB69
:1014D00005F000F0EBFA214600F06AFA314600F020
:1014E00067FABDE8F04700F0C5BA0000CDCCCC3DAE
:1014F00004000020704770470F4910B540424FF478
:10150000C8730A684FF47A74984201DD184606E001
:101510000A4B984201DA184607E0002805DBC0F5BF
:101520007A7050630868846310BD5463096800F5DD
:101530007A70886310BD0000CC00002070FEFFFFB1
:1015400010B510494FF4C8744FF47A730A68A0427A
:1015500001DD204607E00C4CA04201DA20460AE0FB
:10156000002806D007DDC0F57A70D06308680364F0
:1015700010BDD363FAE7D363096800F57A70086495
:1015800010BD0000CC00002070FEFFFF1049B0F538
:10159000C87F0A6802DD4FF416700AE00D4B9842CE
:1015A00001DA18460CE0002801DDC0F57A70002849
:1015B00006DBC0F57A7050634FF47A70096804E076
:1015C00000235363096800F57A7088637047000050
:1015D0008400002070FEFFFF10B510494FF4C8745E
:1015E0004FF47A730A68A04201DD204607E00C4CF4
:1015F000A04201DA20460AE0002806D007DDC0F547
:101600007A70D0630868036410BDD363FAE7D363CC
:10161000096800F57A70086410BD0000840000209D
:1016200070FEFFFFFFF72CB810B590B02821684678
:10163000FEF7CAFD14210AA8FEF7C6FD022000909D
:101640000120049010200024059007946846FFF7BD
:101650006DF908B172B6FEE70F20CDE90A040C94CB
:101660000D9400210AA80E94FFF794F8002801D0E9
:1016700072B6FEE710B010BD7047000070B502688A
:10168000174B184C4FF08046984203D0B04201D01F
:10169000A04203D122F070054A682A43984203D041
:1016A000B04201D0A04203D122F44074CA68224360
:1016B0004C6922F08002224302608A68C2620A6892
:1016C0008262984201D10969016301214161016986
:1016D000C90703D0016921F00101016170BD00005B
:1016E000002C01400004004010B501F01F0301214F
:1016F000046A99408C430462016A9A401143016272
:1017000010BD10B5846842EA032224F47F440A43E2
:101710002243826010BD826822F070020A4342F0C8
:10172000070181607047000030B5036A026A22F049
:10173000010202624268846924F073050C682C433C
:1017400023F002058B682B430A4DA8420BD123F0EE
:101750000805CB6822F440722B434D6923F0040343
:1017600015438A692A434260846149684163036280
:1017700030BD0000002C014030B5026A036A23F03E
:1017800010030362436884690D6824F4E64444EA64
:1017900005248D6822F0200242EA05120B4DA84272
:1017A0000ED1CD6822F0800242EA05124D6923F481
:1017B000406343EA85038D6922F0400243EA8503D2
:1017C0004360846149688163026230BD002C01403E
:1017D00030B5036A026A22F4807202624268C46908
:1017E00023F4007324F073050C682C438D6843EADE
:1017F00005230C4DA8420ED1CD6823F4006343EAC3
:1018000005234D6922F4405242EA05128D6923F402
:10181000806342EA05124260C4614968C1630362A1
:1018200030BD0000002C014030B5046A026A22F489
:10183000805202624268C3690D6823F4E64343EABA
:1018400005238D6824F4005444EA0534064DA8426B
:1018500004D14D6922F4804242EA85124260C3619C
:1018600049680164046230BD002C014010B5036A70
:10187000046A24F001040462846924F0F00444EA58
:10188000021423F00A020A438461026210BD10B5FB
:10189000036A046A24F010040462846923F0A0033C
:1018A00024F4704444EA023243EA01118261016285
:1018B00010BDFEE70907090E002804DB00F1E02057
:1018C00080F80014704700F00F0000F1E02080F86D
:1018D000141D7047054900200A5C2AB100220A54F1
:1018E000401C0728F8DB70470122F8E718000020A9
:1018F000FEF7CEFEFFF798FEFFF7FEFBFFF76EFC4C
:10190000FFF78CFCFFF708FDFFF76CFD642000F08B
:1019100001F8FBE704460B4DFFF78EFD2860201A07
:10192000FFF7EAFD2868201AFFF70AFE286820441E
:10193000FFF72CFE28682044FFF74EFE0A20FEF732
:10194000ABFCE9E70000002070B5164D4FF4806154
:101950002846FEF793FD144CE91420702846FEF744
:101960008DFD124E60704FF400413046FEF786FD4B
:10197000A0704FF480413046FEF780FDE07069149E
:101980003046FEF77BFD207169152846FEF776FD8F
:101990006071A9152846FEF771FDA071BDE8704081
:1019A000FFF798BF000C0140180000200010014014
:1019B00090EA010F48BF81F0004100F16281421AB4
:1019C0003CBF801A89184FEAD0524FF07F4C1CEA76
:1019D000410FA2EBD15318BF9CEA026F00F03B808D
:1019E0004FF0004C4CEA00204CEA012121FA03FCA4
:1019F00010EB0C0C1ED202F1FF325FEA1C2040EB10
:101A0000C25038BF70471CF07F0F4FEA400C18BF20
:101A1000BCF17F4F38BF7047C3F12003994008BF26
:101A200020F00100BCF17F4F38BF7047A0F1C040EB
:101A300000F01BB94FEA3C00000A40EBC25028BF3F
:101A40001CF0FF0F4FEA400CE6D018BFBCF17F4FEF
:101A500038BF7047EAE79CEA026F05D010EA5C0FD6
:101A600008BF00F00040704710B500F0B8F800BFA4
:101A700064FBBE3E41000B0ED3F19E0208D950F428
:101A800000034FEA032323FA02F048BF40427047A5
:101A900010B500F0A4F800BF4992248000207047E0
:101AA0006FF0004282EA20007047000010F0004111
:101AB00048BF4042B0FA80F310FA03F2C3F19D032D
:101AC0000BD051EAC35101EB1220530638BF7047C7
:101AD00000F1010008BF20F0010070474FF47F0CB7
:101AE0001CEAD0121EBF1CEAD11392EA0C0F93EA33
:101AF0000C0F00F0478090EA010F48BF42F480725B
:101B00004FF0004C4CEA00204CEA012102EB0302AA
:101B1000A0FB0113A2F50002002918BF43F0010346
:101B20005B0028BF4FEA330342EB22425FEA132CEB
:101B30004CEBC2502EBFBCEB436FB2F57C0F70472D
:101B40004FEA036CBCF1004F08BF20F00100B2F572
:101B50007C0F38BF70470BD582F0FF0212F5803F33
:101B6000C8BF704700F1C040D8BF00F000407047C8
:101B700000F5000C5FEA4C0C48BF7047B0F1C04064
:101B800000F073B890EA010F0CEAD11348BF42F499
:101B90008072624538BF634504D280EA010000F0DC
:101BA0000040704710B500F01AF800BF8900013EF0
:101BB00000F007B800F009B85FEA410C5FEA1C6C5E
:101BC00008D080EA010000F050B85FEA400C5FEAFC
:101BD0001C6CF6D14FF00040A0F5800070470EF16C
:101BE000020E2EF0030E5EF8044B244204D44FEA9A
:101BF0004102B2F17F4F11D84FEA4003B3F17F4F5A
:101C00000CD80ED14FEAD07CB2F17F4F0CEB4C0CCC
:101C10000CF1020C08BF4CEBD17C04E04FF0080C37
:101C200001E04FEAD17C0CEB4C0324FA03F404F0FE
:101C30000704B4F1040C06D20EEB840CBDE810408E
:101C40004CF0010C6047DFE80CF0070802024FF08F
:101C50000040A0F5800010BD0846420018BFD2F138
:101C6000807288BF00F0004010BDFF2141EAD050D3
:101C7000C005704790EA010F48BF81F000413FF571
:101C80009EAE421A04D882F00042A0EB020011443A
:101C90004FEAD0524FF07F4C1CEA410FA2EBD153D8
:101CA00018BF9CEA026F4AD04FF0004C4CEA00206B
:101CB0004CEA012121FA03FCB0EB0C0C0FD412F01A
:101CC000FE0F36D05FEA4C001DD5001240EBC2502B
:101CD00038BF70471CF03F0F18BF70470BE0A2F1F0
:101CE00001025FEA1C2040EBC25038BF70471CF075
:101CF0007F0F18BF7047C3F12003994014BF401EE7
:101D000020F00100704780084FEA122308BF704797
:101D1000B0FA80FCA2EB0C02CCF1280C60FA0CF0BB
:101D200093EA122F04BF00EBC25070474FEAC37012
:101D30007047130A5FEADC1008BF7047F6E79CEAB9
:101D4000026F04D010EA5C0F08BF0020704710B586
:101D5000FFF745FF40DFF63E81F00040704701028B
:101D600002030405060708090A0B0C0D0E0F1010DC
:101D7000000000000000000001020304060708093B
:101D80000000000001020304A81D0008000000205C
:101D90003000000028010008D81D00083000002095
:101DA0004807000044010008000000000000000097
:101DB0000000000000000000000000000000000023
:101DC0000000000000000000010000001000000002
:081DD0000000000000127A007F
:04000005080000ED02
:00000001FF
